{
  "contractName": "Election",
  "abi": [
    {
      "constant": true,
      "inputs": [],
      "name": "postCount",
      "outputs": [
        {
          "name": "",
          "type": "uint256"
        }
      ],
      "payable": false,
      "stateMutability": "view",
      "type": "function",
      "signature": "0x17906c2e"
    },
    {
      "constant": true,
      "inputs": [
        {
          "name": "",
          "type": "uint256"
        }
      ],
      "name": "cand_post",
      "outputs": [
        {
          "name": "id",
          "type": "uint256"
        },
        {
          "name": "name",
          "type": "string"
        },
        {
          "name": "voteCount",
          "type": "uint256"
        }
      ],
      "payable": false,
      "stateMutability": "view",
      "type": "function",
      "signature": "0x5793428d"
    },
    {
      "constant": true,
      "inputs": [],
      "name": "partyCount",
      "outputs": [
        {
          "name": "",
          "type": "uint256"
        }
      ],
      "payable": false,
      "stateMutability": "view",
      "type": "function",
      "signature": "0x9eb8e725"
    },
    {
      "constant": true,
      "inputs": [
        {
          "name": "",
          "type": "address"
        }
      ],
      "name": "voters",
      "outputs": [
        {
          "name": "",
          "type": "bool"
        }
      ],
      "payable": false,
      "stateMutability": "view",
      "type": "function",
      "signature": "0xa3ec138d"
    },
    {
      "constant": true,
      "inputs": [
        {
          "name": "",
          "type": "uint256"
        }
      ],
      "name": "cand_party",
      "outputs": [
        {
          "name": "id",
          "type": "uint256"
        },
        {
          "name": "name",
          "type": "string"
        },
        {
          "name": "voteCount",
          "type": "uint256"
        }
      ],
      "payable": false,
      "stateMutability": "view",
      "type": "function",
      "signature": "0xad105391"
    },
    {
      "inputs": [],
      "payable": false,
      "stateMutability": "nonpayable",
      "type": "constructor",
      "signature": "constructor"
    },
    {
      "anonymous": false,
      "inputs": [
        {
          "indexed": true,
          "name": "_candidateId1",
          "type": "uint256"
        },
        {
          "indexed": true,
          "name": "_candidateId2",
          "type": "uint256"
        }
      ],
      "name": "votedEvent",
      "type": "event",
      "signature": "0xb7e338857470376b2fa57b9b2cbf51a8724d543a80bf4fb392a2aa9dad1118a2"
    },
    {
      "constant": false,
      "inputs": [
        {
          "name": "_candidateId1",
          "type": "uint256"
        },
        {
          "name": "_candidateId2",
          "type": "uint256"
        }
      ],
      "name": "vote",
      "outputs": [],
      "payable": false,
      "stateMutability": "nonpayable",
      "type": "function",
      "signature": "0xb384abef"
    }
  ],
  "bytecode": "0x608060405234801561001057600080fd5b5061005e6040805190810160405280600b81526020017f43616e646964617465203100000000000000000000000000000000000000000081525061014a640100000000026401000000009004565b6100ab6040805190810160405280600b81526020017f43616e646964617465203200000000000000000000000000000000000000000081525061014a640100000000026401000000009004565b6100f86040805190810160405280600b81526020017f43616e64696461746520310000000000000000000000000000000000000000008152506101c7640100000000026401000000009004565b6101456040805190810160405280600b81526020017f43616e64696461746520320000000000000000000000000000000000000000008152506101c7640100000000026401000000009004565b6102e9565b600460008154809291906001019190505550606060405190810160405280600454815260200182815260200160008152506001600060045481526020019081526020016000206000820151816000015560208201518160010190805190602001906101b6929190610244565b506040820151816002015590505050565b60036000815480929190600101919050555060606040519081016040528060035481526020018281526020016000815250600260006003548152602001908152602001600020600082015181600001556020820151816001019080519060200190610233929190610244565b506040820151816002015590505050565b828054600181600116156101000203166002900490600052602060002090601f016020900481019282601f1061028557805160ff19168380011785556102b3565b828001600101855582156102b3579182015b828111156102b2578251825591602001919060010190610297565b5b5090506102c091906102c4565b5090565b6102e691905b808211156102e25760008160009055506001016102ca565b5090565b90565b610645806102f86000396000f3fe608060405260043610610078576000357c0100000000000000000000000000000000000000000000000000000000900463ffffffff16806317906c2e1461007d5780635793428d146100a85780639eb8e7251461016a578063a3ec138d14610195578063ad105391146101fe578063b384abef146102c0575b600080fd5b34801561008957600080fd5b50610092610305565b6040518082815260200191505060405180910390f35b3480156100b457600080fd5b506100e1600480360360208110156100cb57600080fd5b810190808035906020019092919050505061030b565b6040518084815260200180602001838152602001828103825284818151815260200191508051906020019080838360005b8381101561012d578082015181840152602081019050610112565b50505050905090810190601f16801561015a5780820380516001836020036101000a031916815260200191505b5094505050505060405180910390f35b34801561017657600080fd5b5061017f6103cd565b6040518082815260200191505060405180910390f35b3480156101a157600080fd5b506101e4600480360360208110156101b857600080fd5b81019080803573ffffffffffffffffffffffffffffffffffffffff1690602001909291905050506103d3565b604051808215151515815260200191505060405180910390f35b34801561020a57600080fd5b506102376004803603602081101561022157600080fd5b81019080803590602001909291905050506103f3565b6040518084815260200180602001838152602001828103825284818151815260200191508051906020019080838360005b83811015610283578082015181840152602081019050610268565b50505050905090810190601f1680156102b05780820380516001836020036101000a031916815260200191505b5094505050505060405180910390f35b3480156102cc57600080fd5b50610303600480360360408110156102e357600080fd5b8101908080359060200190929190803590602001909291905050506104b5565b005b60045481565b6001602052806000526040600020600091509050806000015490806001018054600181600116156101000203166002900480601f0160208091040260200160405190810160405280929190818152602001828054600181600116156101000203166002900480156103bd5780601f10610392576101008083540402835291602001916103bd565b820191906000526020600020905b8154815290600101906020018083116103a057829003601f168201915b5050505050908060020154905083565b60035481565b60006020528060005260406000206000915054906101000a900460ff1681565b6002602052806000526040600020600091509050806000015490806001018054600181600116156101000203166002900480601f0160208091040260200160405190810160405280929190818152602001828054600181600116156101000203166002900480156104a55780601f1061047a576101008083540402835291602001916104a5565b820191906000526020600020905b81548152906001019060200180831161048857829003601f168201915b5050505050908060020154905083565b6000803373ffffffffffffffffffffffffffffffffffffffff1673ffffffffffffffffffffffffffffffffffffffff16815260200190815260200160002060009054906101000a900460ff1615151561050d57600080fd5b60008211801561051f57506004548211155b801561052b5750600081115b801561053957506003548111155b151561054457600080fd5b60016000803373ffffffffffffffffffffffffffffffffffffffff1673ffffffffffffffffffffffffffffffffffffffff16815260200190815260200160002060006101000a81548160ff0219169083151502179055506001600083815260200190815260200160002060020160008154809291906001019190505550600260008281526020019081526020016000206002016000815480929190600101919050555080827fb7e338857470376b2fa57b9b2cbf51a8724d543a80bf4fb392a2aa9dad1118a260405160405180910390a3505056fea165627a7a72305820b1c3229e5960de59d988764cdd73dacc7dec9bb8a33a138232232304102bcd290029",
  "source": "pragma solidity ^0.5.0;\r\n\r\ncontract Election {\r\n    // Model a Candidate for first past the post system\r\n    struct Candidatepost {\r\n        uint id;\r\n        string name;\r\n        uint voteCount;\r\n    }\r\n\r\n    // Model as candidate for proportional party system\r\n    struct Candidateparty {\r\n        uint id;\r\n        string name;\r\n        uint voteCount;\r\n    }\r\n\r\n    // Store accounts that have voted\r\n    mapping(address => bool) public voters;\r\n    // Store Candidates\r\n    // Fetch Candidate\r\n    mapping(uint => Candidatepost) public cand_post;\r\n\r\n    mapping(uint => Candidateparty) public cand_party;\r\n\r\n    // Store Candidates Count\r\n    uint public partyCount;\r\n    uint public postCount;\r\n    \r\n\r\n    constructor () public {\r\n        addpostCandidate(\"Candidate 1\");\r\n        addpostCandidate(\"Candidate 2\");\r\n        addpartyCandidate(\"Candidate 1\");\r\n        addpartyCandidate(\"Candidate 2\");\r\n    }\r\n\r\n    function addpostCandidate (string memory _name) private {\r\n        postCount ++;\r\n        cand_post[postCount] = Candidatepost(postCount, _name, 0);\r\n    }\r\n\r\n\r\n    function addpartyCandidate (string memory _name) private {\r\n        partyCount ++;\r\n        cand_party[partyCount] = Candidateparty(partyCount, _name, 0);\r\n    }\r\n    // voted event\r\n    event votedEvent (\r\n        uint indexed _candidateId1,\r\n        uint indexed _candidateId2\r\n    );\r\n\r\n\r\n    function vote (uint _candidateId1, uint _candidateId2) public {\r\n        // require that they haven't voted before\r\n        require(!voters[msg.sender]);\r\n\r\n        // require a valid candidate\r\n        require(_candidateId1 > 0 && _candidateId1 <= postCount && _candidateId2 > 0 && _candidateId2 <= partyCount);\r\n\r\n        // record that voter has voted\r\n        voters[msg.sender] = true;\r\n\r\n        // update candidate vote Count\r\n        cand_post[_candidateId1].voteCount ++;\r\n        cand_party[_candidateId2].voteCount ++;\r\n\r\n\r\n        // trigger voted event\r\n        emit votedEvent(_candidateId1, _candidateId2);\r\n    }\r\n\r\n\r\n}\r\n",
  "sourcePath": "/Users/animesh/Downloads/test/contracts/Election.sol",
  "compiler": {
    "name": "solc",
    "version": "0.5.0+commit.1d4f565a.Emscripten.clang"
  },
  "schemaVersion": "3.0.1",
  "updatedAt": "2019-02-07T19:49:48.665Z",
  "devdoc": {
    "methods": {}
  },
  "userdoc": {
    "methods": {}
  }
}